:100000000C9469000C9491000C9491000C94910054
:100010000C9491000C9491000C9491000C9491001C
:100020000C9491000C9491000C9491000C9491000C
:100030000C9491000C9491000C9491000C949100FC
:100040000C9492020C9491000C9491000C949100E9
:100050000C9491000C9491000C9491000C949100DC
:100060000C9491000C9491003200FA003200FA00D6
:10007000FA00FA00000000000000240027002A0017
:1000800000000000250028002B00000000002300D5
:1000900026002900040404040404040402020202E9
:1000A000020203030303030301020408102040803B
:1000B00001020408102001020408102000000007BB
:1000C0000002010000030406000000000000000020
:1000D000C00011241FBECFEFD8E0DEBFCDBF11E0BE
:1000E000A0E0B1E0E4EDF6E002C005900D92AE3084
:1000F000B107D9F711E0AEE0B1E001C01D92A8331D
:10010000B107E1F710E0C2EDD0E004C02297FE0194
:100110000E946403C03DD107C9F70E9458010C94A6
:1001200093000C940000F8940C946803FC01658320
:10013000A381B4812281662331F09FB7F8948C911A
:10014000822B8C9306C09FB7F8948C91209528231E
:100150002C939FBF0895DC011396ED91FC911497A9
:10016000208140E030E012968C9190E028233923E2
:10017000232B09F041E0842F0895FC018581089527
:1001800084E091E090932501809324018CE091E03C
:1001900090932B0180932A010895EF92FF920F9381
:1001A0001F93CF93DF93EC0189859A85892B09F4FE
:1001B0006BC00E94DA027B018C018D819E81AF8130
:1001C000B885A8019701281B390B4A0B5B0B57FD1B
:1001D00068C06FB7F89449855A854115510519F4DF
:1001E00020E030E030C02C81822F90E0880F991FF2
:1001F000EA81FB81E80FF91F2F5F2C832591349151
:100200002115310501F51B861C821416150624F4F0
:10021000415050405A87498789859A85892B99F0A2
:100220002C81822F90E0880F991FEA81FB81E80FD3
:10023000F91F2F5F2C83259134912115310519F475
:100240001C821A8619866FBF2115310511F41B8691
:1002500004C08B8591E089278B87C901A0E0B0E0BD
:100260008E0D9F1DA01FB11F8D839E83AF83B88706
:10027000A881B981ED91FC9111970280F381E02D65
:10028000CD016B8509950DC01B86E881F981A081A0
:10029000B18112962D913C911397CF0160E0F90145
:1002A0000995DF91CF911F910F91FF90EF900895E5
:1002B0006F927F928F929F92AF92BF92DF92EF9256
:1002C000FF920F931F93CF93DF930E94E802ECEA13
:1002D000F0E0E491E0932C01E8E9F0E0E4910E2FE6
:1002E00010E0000F111FF801E657FF4F8591949120
:1002F00090932E0180932D0184E060E00E942303FF
:10030000C80180589F4FFC01A591B4912FB7F89474
:100310008C9190912C01892B8C932FBF0AE211E0D4
:1003200010930F0100930E018AE090E09093170163
:10033000809316010E94DA026093120170931301F8
:100340008093140190931501A0910E01B0910F01BB
:10035000ED91FC9111970190F081E02DCD0109956F
:100360008093110180931001E5EBF0E0E491E093BC
:100370002601E1EAF0E0E491F0E0EE0FFF1FE05823
:10038000FF4F8591949190932801809327018DE0F0
:1003900061E00E942303E0912401F09125010650C1
:1003A00010400280F381E02DC80160E009951093B0
:1003B00019010093180110921B0110921A0110925A
:1003C0001C0110922301109222011092210110921F
:1003D0001D0110921E0110921F0110922001E8E6EB
:1003E000AE2EE0E0BE2EC1E0D0E0A0910E01B091B3
:1003F0000F01ED91FC9111970190F081E02DCD015D
:100400000995D82E0E94DA027B018C01809111019E
:1004100080931001D81621F180911201909113015F
:10042000A0911401B0911501A8019701281B390B67
:100430004A0B5B0B8091160190911701A0E0B0E090
:10044000281739074A075B0710F0D0921101E09294
:100450001201F092130100931401109315012AC0A8
:1004600080911601909117019C0140E050E080912D
:10047000120190911301A0911401B091150137015F
:100480004801681A790A8A0A9B0A6216730684066A
:10049000950680F020953095409550952E0D3F1D86
:1004A000401F511F209312013093130140931401F8
:1004B0005093150188E191E00E94CD0080911101D7
:1004C000882309F092CF80911001882309F48DCF01
:1004D00080911A0190911B018856904029F4D09385
:1004E0002201C093210119C08FB7F89410921C010A
:1004F000B0921B01A0921A01D0932201C093210156
:10050000109223018FBF0E94DA0260931D01709345
:100510001E0180931F019093200188E191E00E94C9
:10052000CD0063CF1F920F920FB60F9211242F931D
:100530003F938F939F93AF93BF938091330190919B
:100540003401A0913501B091360130913701019607
:10055000A11DB11D232F2D5F2D3720F02D570196A2
:10056000A11DB11D20933701809333019093340175
:10057000A0933501B093360180912F019091300105
:10058000A0913101B09132010196A11DB11D80935E
:100590002F0190933001A0933101B0933201BF91AC
:1005A000AF919F918F913F912F910F900FBE0F9020
:1005B0001F9018958FB7F894209133013091340132
:1005C00040913501509136018FBFB901CA0108959C
:1005D000789484B5826084BD84B5816084BD85B51E
:1005E000826085BD85B5816085BDEEE6F0E08081E5
:1005F00081608083E1E8F0E0108280818260808306
:10060000808181608083E0E8F0E080818160808388
:10061000E1EBF0E0808184608083E0EBF0E08081BA
:1006200081608083EAE7F0E080818460808380815C
:100630008260808380818160808380818068808304
:100640001092C1000895CF93DF93482F50E0CA0164
:1006500088559F4FFC0134914C565F4FFA018491AD
:10066000882369F190E0880F991FFC01EA58FF4F39
:10067000A591B491FC01E058FF4FC591D491662338
:1006800051F42FB7F8948C91932F909589238C93E4
:10069000888189230BC0623061F42FB7F8948C9164
:1006A000932F909589238C938881832B88832FBFE8
:1006B00006C09FB7F8948C91832B8C939FBFDF91DA
:1006C000CF910895EE0FFF1F0590F491E02D09944E
:0406D000F894FFCFCC
:0E06D40000000000BD00960000000000AB001A
:00000001FF
