:100000000C947D000C94A5000C94A5000C94A50004
:100010000C94A5000C94A5000C94A5000C94A500CC
:100020000C94A5000C94A5000C94A5000C94A500BC
:100030000C94A5000C94A5000C94A5000C94A500AC
:100040000C94B1000C94A5000C94A5000C94A50090
:100050000C94A5000C94A5000C94A5000C94A5008C
:100060000C94A5000C94A500F401F4010000FA0022
:10007000FA000000320032000000000032000000F0
:1000800032003200FA00FA0000003200FA003200BA
:10009000FA00FA00FA0000003200F401000000004B
:1000A0000000240027002A0000000000250028008E
:1000B0002B00000000002300260029000404040493
:1000C0000404040402020202020203030303030302
:1000D00001020408102040800102040810200102DF
:1000E00004081020000000070002010000030406BD
:1000F0000000000000000000420111241FBECFEFED
:10010000D8E0DEBFCDBF11E0A0E0B1E0E6E8F7E067
:1001100002C005900D92AE30B107D9F711E0AEE004
:10012000B1E001C01D92A833B107E1F710E0CAEFBA
:10013000D0E004C02297FE010E94BD03C83FD10752
:10014000C9F70E94AA000C94A7000C940000F89430
:100150000C94C1030E9407010E9468010E944F0194
:10016000FDCF1F920F920FB60F9211242F933F9342
:100170008F939F93AF93BF9380911201909113013E
:10018000A0911401B0911501309116010196A11DA5
:10019000B11D232F2D5F2D3720F02D570196A11D66
:1001A000B11D209316018093120190931301A09327
:1001B0001401B093150180910E0190910F01A0914F
:1001C0001001B09111010196A11DB11D80930E0186
:1001D00090930F01A0931001B0931101BF91AF91C3
:1001E0009F918F913F912F910F900FBE0F901F9075
:1001F00018958FB7F8942091120130911301409116
:100200001401509115018FBFB901CA010895789466
:1002100084B5826084BD84B5816084BD85B582600B
:1002200085BD85B5816085BDEEE6F0E080818160A9
:100230008083E1E8F0E010828081826080838081A9
:1002400081608083E0E8F0E0808181608083E1EB81
:10025000F0E0808184608083E0EBF0E08081816069
:100260008083EAE7F0E0808184608083808182601F
:100270008083808181608083808180688083109208
:10028000C100089584E091E09093180180931701D4
:100290008CE091E090931E0180931D01089582E20D
:1002A00091E00E9464028CE291E00E94ED01809155
:1002B0002501882361F480912401882341F08CE298
:1002C00091E06AE870E041E050E00E943F0208954A
:1002D0000F931F930DE111E0C80164E041E00E941B
:1002E0003C0382E291E0B8014AE050E00E94C30280
:1002F00007E111E0C8016DE040E00E940C038CE2D0
:1003000091E0B8010E9487011F910F910895FC01AF
:10031000718360831382128214821386128611867F
:1003200015821682178210860895DC016FB7F89443
:1003300019964D915C911A974115510509F448C0E1
:1003400014962C911497822F90E0880F991F129683
:10035000ED91FC911397E80FF91F2F5F14962C93E2
:10036000149785919491009751F51B961C921B97B9
:1003700014961C9214971416150634F441505040EC
:100380001A965C934E93199719968D919C911A9792
:10039000892BF1F014962C911497822F90E0880FFE
:1003A000991F1296ED91FC911397E80FF91F2F5F9B
:1003B00014962C93149785919491009711F09C01B9
:1003C00009C014961C9214971A961C921E921997A3
:1003D00020E030E06FBFC9010895EF92FF920F93C4
:1003E0001F93CF93DF93EC0189859A85892B99F12F
:1003F0000E94F9007B018C018D819E81AF81B885BF
:10040000A8019701281B390B4A0B5B0B57FD30C025
:10041000CE010E9495019C01009711F41B8604C037
:100420008B8591E089278B87C901A0E0B0E08E0D14
:100430009F1DA01FB11F8D839E83AF83B887A881A6
:10044000B981ED91FC9111970280F381E02DCD01EE
:100450006B8509950DC01B86E881F981A081B1816A
:1004600012962D913C911397CF0160E0F901099507
:10047000DF91CF911F910F91FF90EF900895CF934F
:10048000DF93EC016115710511F440E050E08A81C1
:100490009B816817790719F45A8749870FC08FB76E
:1004A000F8941C827B836A835A8749871B868FBF97
:1004B0000E94F9006D837E838F839887CE010E940E
:1004C000ED01DF91CF9108959F92AF92BF92CF92AD
:1004D000DF92EF92FF920F931F93CF93DF93EC0184
:1004E000A881B981ED91FC9111970190F081E02DE7
:1004F000CD010995982E0E94F9007B018C018B811A
:100500008A83AC80BD80CE80DF806885798598162F
:10051000A1F0A80197012A193B094C095D09CB01FB
:10052000A0E0B0E0281739074A075B0708F09B8274
:10053000EC82FD820E831F831AC09B0140E050E0D5
:10054000D801C7018A199B09AC09BD098217930715
:10055000A407B50760F020953095409550952E0D75
:100560003F1D401F511F2C833D834E835F83DF91CE
:10057000CF911F910F91FF90EF90DF90CF90BF90A0
:10058000AF909F9008950F931F938C01FC0171838E
:100590006083518740870E94F900F8016483758366
:1005A00086839783A081B181ED91FC911197019091
:1005B000F081E02DCD010995F801838382831F919D
:1005C0000F910895DC011396ED91FC911497208111
:1005D00040E030E012968C9190E028233923232BC1
:1005E00009F041E0842F0895FC0185810895FC0104
:1005F0006583A381B4812281662331F09FB7F8948B
:100600008C91822B8C9306C09FB7F8948C91209587
:1006100028232C939FBF0895FF920F931F938C0163
:10062000862FF42E262F30E0F901E053FF4FE4919E
:10063000D8011296EC93129724543F4FF9019491EC
:10064000E92FF0E0EE0FFF1FE855FF4F25913491A1
:1006500014963C932E93139761E00E947C03D8017B
:10066000ED91FC910280F381E02DC8016F2D099579
:100670001F910F91FF900895DF92EF92FF920F93D9
:100680001F937C01862FD42E262F30E0F901E053F2
:10069000FF4FE491D7011296EC93129724543F4FE9
:1006A000F901049110E0000F111FF801EE54FF4F03
:1006B0002591349114963C932E93139760E00E94F9
:1006C0007C03F801E855FF4FA591B491F701228111
:1006D000DD2029F09FB7F8948C91822B05C09FB73D
:1006E000F8948C91209582238C939FBF1F910F913A
:1006F000FF90EF90DF900895CF93DF93482F50E065
:10070000CA0180539F4FFC01349144545F4FFA015A
:100710008491882369F190E0880F991FFC01E256CB
:10072000FF4FA591B491FC01E855FF4FC591D491BD
:10073000662351F42FB7F8948C91932F90958923C9
:100740008C93888189230BC0623061F42FB7F894B1
:100750008C91932F909589238C938881832B888308
:100760002FBF06C09FB7F8948C91832B8C939FBFAB
:10077000DF91CF910895EE0FFF1F0590F491E02DCA
:060780000994F894FFCF7C
:0E07860000000000F402F70200000000E20292
:00000001FF
